:100000000C9402010C9416010C9416010C94160128
:100010000C9416010C9416010C9416010C94160104
:100020000C9416010C9416010C9416010C941601F4
:100030000C9416010C9416010C9416010C941601E4
:100040000C9416010C9416010C9416010C941601D4
:100050000C9416010C9416010C9416010C943201A8
:100060000C9416010C9416010C9416010C941601B4
:100070000C9416010C9416010C9416010C941601A4
:100080000C9416010C9416010C9416010C94160194
:100090000C9416010C9416010C9416010C94160184
:1000A0000C9416010C9416010C9416010C94160174
:1000B0000C9416010C9416010C9416010C94160164
:1000C0000C9416010C9416010C9416010C94160154
:1000D0000C9416010C9416010C9416010C94160144
:1000E0000C94160100002100240027002A002D0096
:1000F0003000330001010000040107010A01000083
:100100002200250028002B002E00310034000201BF
:100110000000050108010B0100002000230026005B
:1001200029002C002F00320000010000030106010D
:10013000090105050505070508080808020202026D
:100140000A0A080804040404010101010101010173
:100150000303030303030303040707070C0C0C0C3E
:100160000C0C0C0C02020202060606060606060627
:100170000B0B0B0B0B0B0B0B0102102020080810B4
:100180002040102040800201020108040201010207
:1001900004081020408080402010080402018004E0
:1001A000020180402010080402010804020101023B
:1001B0000408102040800102040810204080000044
:1001C000090A02080B0C0D070603040100000000D9
:1001D000000000000000000000000000000000001F
:1001E0000000000000000000000011100F000000DF
:1001F00000000000000000000000000000000000FF
:100200000000000011241FBECFEFD1E2DEBFCDBF42
:1002100000E00CBF12E0A0E0B2E001C01D92A930E6
:10022000B107E1F70E94F9020C9408030C94000056
:100230008DE061E00E949D0208958DE061E00E94E2
:10024000C10264E670E080E090E00E94A0018DE0D1
:1002500060E00E94C10264E670E080E090E00E94ED
:10026000A00108951F920F920FB60F9211242F93A1
:100270003F938F939F93AF93BF938091040290918C
:100280000502A0910602B091070230910802019682
:10029000A11DB11D232F2D5F2D3720F02D57019665
:1002A000A11DB11D209308028093040290930502C2
:1002B000A0930602B0930702809100029091010280
:1002C000A0910202B09103020196A11DB11D80937D
:1002D000000290930102A0930202B0930302BF9127
:1002E000AF919F918F913F912F910F900FBE0F90E3
:1002F0001F9018959FB7F894209100023091010249
:10030000409102025091030286B5A89B06C08F3F20
:1003100021F02F5F3F4F4F4F5F4F9FBF542F432F11
:10032000322F2227280F311D411D511D82E0220F3F
:10033000331F441F551F8A95D1F7B901CA0108958B
:10034000EF92FF920F931F93CF93DF937B018C016A
:100350000E947A01EB010FC00E947A016C1B7D0B99
:1003600083E0683E780738F00894E108F108010955
:100370001109C851DC4FE114F1040105110561F7C1
:10038000DF91CF911F910F91FF90EF900895789496
:1003900084B5826084BD84B5816084BD85B582608A
:1003A00085BD85B5816085BDEEE6F0E08081816028
:1003B0008083E1E8F0E01082808182608083808128
:1003C00081608083E0E8F0E0808181608083E1EB00
:1003D000F0E0808184608083E0EBF0E080818160E8
:1003E0008083E1E9F0E080818260808380818160A8
:1003F0008083E0E9F0E0808181608083E1EAF0E0E1
:10040000808182608083808181608083E0EAF0E087
:10041000808181608083E1E2F1E08081826080837D
:10042000808181608083E0E2F1E08081816080836F
:10043000EAE7F0E08081846080838081826080834D
:100440008081816080838081806880831092C10078
:100450000895893009F449C08A30A0F4843051F1FC
:10046000853040F4823079F1833000F5813009F035
:1004700063C026C0873079F1883098F5863009F05E
:100480005BC025C08D3009F442C08E3028F48B301B
:10049000B1F18C30C0F52DC0803109F442C08131FA
:1004A00009F445C08F3009F047C037C08091800003
:1004B0008F7703C0809180008F7D809380000895A6
:1004C00084B58F7702C084B58F7D84BD08958091F7
:1004D000B0008F7703C08091B0008F7D8093B00013
:1004E0000895809190008F7707C0809190008F7D54
:1004F00003C080919000877F809390000895809141
:10050000A0008F7707C08091A0008F7D03C08091ED
:10051000A000877F8093A0000895809120018F77AD
:1005200003C0809120018F7D8093200108958091E8
:100530002001877F80932001089590E0FC01E85816
:10054000FE4F2491FC01EE5CFE4FE491EE23C1F0DE
:10055000F0E0EE0FFF1FEC51FF4F85919491DC010D
:10056000662341F49FB7F8948C91209582238C9355
:100570009FBF08959FB7F8948C91822B8C939FBF57
:1005800008950F931F93DF93CF930F92CDB7DEB7EC
:10059000282F30E0F901E254FE4F8491F901E85828
:1005A000FE4F14912E5C3E4FF90104910023D9F0C7
:1005B000882321F069830E9429026981E02FF0E0FD
:1005C000EE0FFF1FE250FF4F85919491DC019FB722
:1005D000F894662321F48C911095812302C08C91AC
:1005E000812B8C939FBF0F90CF91DF911F910F9123
:1005F0000895CF93DF930E94C7010E941801C0E0C5
:10060000D0E00E941D012097E1F30E940000F9CF85
:04061000F894FFCF8C
:00000001FF
